:0200000080235B
:100023008027C2B57E147A3C7B057F037C00780F62
:100033007D05C2A5D2BCE4758920758DF9759850EC
:1000430075A890D28AD28880FEE599B46126EBFD2B
:10005300D2BC30B22D30B34275A001D29711B2DDBC
:10006300FCC297EBFD11B20DBD07FAC299C298E528
:1000730099B46BDAE59975A000759900C298E4C24A
:100083009732D2B2E8947840077800C3D2A580C5EE
:10009300E8241EF8C2B5C2A580BBDF0AD2B37D0532
:1000A3007B057F0380B2D2B3EB9401FBFD80A97E75
:1000B30014758C3CEEFA20A50A0CBC3C067C00D8D7
:1000C3000280B17914E599B461AAD28C308DFDC256
:0800D3008DC28CD9F0DADF22A6
:00000001FF
